:100000000C947B010C94A3010C94A3010C94A00C00
:100010000C94A00C0C94A00C0C94A3010C94A301C0
:100020000C94A3010C94A3010C94A3010C94A301C0
:100030000C94A3010C94A3010C94A3010C94A301B0
:100040000C94560C0C94A3010C94240C0C94FE0BF1
:100050000C94A3010C94A3010C94A3010C94A30190
:100060000C94A3010C94A3015D2000626C6E6B697B
:100070006E660076657200312E302E3100682D627A
:1000800065617400343500627566662D696E0032F4
:100090003536006465760041726475696E6F20556F
:1000A0006E6F006370750041546D6567613332385F
:1000B0005000636F6E0053747265616D0062756904
:1000C0006C64004E6F76203139203230323120316D
:1000D000313A31373A313600000000000000240088
:1000E00027002A000D0A202020205F5F5F20205F6C
:1000F0005F202020202020202020205F5F0D0A206C
:1001000020202F205F20292F202F5F205F5F5F5F3F
:100110005F20202F202F5F5F0D0A20202F205F20DF
:10012000202F202F202F2F202F205F205C2F2020FA
:10013000275F2F0D0A202F5F5F5F5F2F5F2F5C5FB0
:100140002C202F5F2F2F5F2F5F2F5C5F5C0D0A200D
:10015000202020202020202F5F5F5F2F2076312E4F
:10016000302E31206F6E2041726475696E6F20559C
:100170006E6F0D0A00436F6E6E656374696E672E55
:100180002E2E006D73292E0052656164792028702F
:10019000696E673A200000000008000201000003B9
:1001A00004070000000000000000A601A601A6014F
:1001B000A601A601A601A601A601A601A601A60107
:1001C000A601A601A601A601A601A601A601A601F7
:1001D000A601A601A601A601A601A601A601A601E7
:1001E000A601A601A601A601A601A501A501A501DA
:1001F000A501A501A501A501A501A501A501A501CF
:10020000A501A501A501A501A501A501A501A501BE
:10021000A501A501A501A501A501A501A501A501AE
:10022000A501A501A501A501A501496E76616C692D
:100230006420485720636D643A20005365727665E8
:10024000723A20005265646972656374696E672052
:10025000746F20005265616479005061636B65744E
:1002600020746F6F206269673A2000436F6E6E657D
:100270006374206661696C65642E20636F64653AFF
:100280002000496E76616C69642061757468207421
:100290006F6B656E004C6F67696E2074696D656F7A
:1002A0007574004865617274626561742074696D6B
:1002B000656F75740000000000230026002900000F
:1002C000000000250028002B00040404040404049A
:1002D00004020202020202030303030303010204F5
:1002E00008102040800102040810200102040810B8
:1002F0002000180D7B0F11241FBECFEFD8E0DEBF0A
:10030000CDBF11E0A0E0B1E0E4EBF3E202C0059064
:100310000D92A236B107D9F722E0A2E6B1E001C002
:100320001D92AB38B207E1F711E0CAE7D1E004C093
:100330002197FE010E94A611C937D107C9F70E9473
:10034000FD0D0C94CD110C94000008950895AF920A
:10035000BF92CF92DF92EF92FF920F931F93CF93B2
:10036000DF936C017B018B01040F151FEB015E0114
:10037000AE18BF08C017D10759F06991D601ED91A9
:10038000FC910190F081E02DC6010995892B79F748
:10039000C501DF91CF911F910F91FF90EF90DF90FA
:1003A000CF90BF90AF900895FC01538D448D252FC1
:1003B00030E0842F90E0821B930B541710F0CF96FF
:1003C000089501970895FC01918D828D981761F031
:1003D000A28DAE0FBF2FB11D5D968C91928D9F5F48
:1003E0009F73928F90E008958FEF9FEF0895FC0127
:1003F000918D828D981731F0828DE80FF11D858DDA
:1004000090E008958FEF9FEF0895FC01918D228D6C
:10041000892F90E0805C9F4F821B91098F739927F1
:1004200008958FEA91E00E94050221E0892B09F4EA
:1004300020E0822F089580E090E0892B29F00E942F
:10044000110281110C9400000895FC01A48DA80FE5
:10045000B92FB11DA35ABF4F2C91848D90E0019606
:100460008F739927848FA689B7892C93A089B18926
:100470008C91837080648C93938D848D981306C0C7
:100480000288F389E02D80818F7D80830895EF922B
:10049000FF920F931F93CF93DF93EC0181E0888F3E
:1004A0009B8D8C8D98131AC0E889F989808185FF0E
:1004B00015C09FB7F894EE89FF896083E889F989B0
:1004C00080818370806480839FBF81E090E0DF91B2
:1004D000CF911F910F91FF90EF900895F62E0B8D05
:1004E00010E00F5F1F4F0F731127E02E8C8D8E11C0
:1004F0000CC00FB607FCFACFE889F989808185FF27
:10050000F5CFCE010E942502F1CFEB8DEC0FFD2F30
:10051000F11DE35AFF4FF0829FB7F8940B8FEA89E1
:10052000FB8980818062CFCFCF93DF93EC01888DF0
:100530008823B9F0AA89BB89E889F9898C9185FD5E
:1005400003C0808186FD0DC00FB607FCF7CF8C91EC
:1005500085FFF2CF808185FFEDCFCE010E9425027D
:10056000E9CFDF91CF910895833081F028F4813075
:1005700099F08230A9F008958730A9F08830C9F049
:100580008430B1F4809180008F7D03C08091800021
:100590008F7780938000089584B58F7784BD089508
:1005A00084B58F7DFBCF8091B0008F778093B000B2
:1005B00008958091B0008F7DF9CF1F93CF93DF9383
:1005C000282F30E0F901EA56FE4F8491F901E352F9
:1005D000FD4FD491F901E753FD4FC491CC23A9F00D
:1005E000162F81110E94B402EC2FF0E0EE0FFF1FD6
:1005F000E154FD4FA591B4918FB7F894EC9111118E
:1006000008C0D095DE23DC938FBFDF91CF911F917F
:100610000895DE2BF8CFCF93DF9390E0FC01E352F7
:10062000FD4F249187539D4FFC0184918823C9F08D
:1006300090E0880F991FFC01E652FF4FA591B491FD
:10064000FC01E154FD4FC591D49161110DC09FB7DC
:10065000F8948C91209582238C9388812823288379
:100660009FBFDF91CF910895623051F49FB7F89406
:100670003C91822F809583238C93E8812E2BEFCFA2
:100680008FB7F894EC912E2B2C938FBFEACF3FB706
:10069000F8948091A7019091A801A091A901B0912F
:1006A000AA0126B5A89B05C02F3F19F00196A11DF0
:1006B000B11D3FBFBA2FA92F982F8827BC01CD01AC
:1006C000620F711D811D911D42E0660F771F881F0B
:1006D000991F4A95D1F708950C9447032FB7F894C2
:1006E0006091A3017091A4018091A5019091A60150
:1006F0002FBF08952091AD013091AE012817390721
:1007000071F49091AB018091AC01981741F0E091A8
:10071000AB01F0E0EE59FE4F808190E008958FEF3D
:100720009FEF0895EF92FF920F931F93CF93DF9364
:10073000DC015C96ED90FC905D97E114F10479F496
:1007400081E090E013969C938E93129790E080E066
:10075000DF91CF911F910F91FF90EF9008955196E7
:10076000ED91FC91529750968C915097982F9095BF
:100770000FB75E962C915E97122F127021FD609537
:10078000F8942081112319F1282B2083E701219768
:10079000F1F728E0462F50E0308160FF1AC0382B77
:1007A0003083E7012197F1F7BA01759567952150DC
:1007B00089F7112381F08081892380830FBF5C96A4
:1007C0008D919C910197F1F781E090E0C1CF2923B1
:1007D000DCCF3923E5CF9081892BEFCF0F931F9387
:1007E000CF93DF938C01D0E0C0E0F801EC0FFD1F48
:1007F0006491662341F088E692E00E949203892B7F
:1008000011F02196F2CFCE01DF91CF911F910F9180
:1008100008952091AD013091AE012817390771F488
:100820008091AC012091AB0190E0805C9F4F821BD6
:10083000910960E470E00E945C11089590E080E00E
:1008400008952091AD013091AE0128173907B9F410
:100850009091AB018091AC01981789F0E091AB01C8
:10086000F0E0EE59FE4F80812091AB0130E02F5F28
:100870003F4F2F7333272093AB0190E008958FEF04
:100880009FEF089590E080E008958F929F92AF923D
:10089000BF92CF92DF92EF92FF920F931F93CF936D
:1008A000DF936C017B018B01040F151F0E946E0307
:1008B0004B015C01E701C017D107C8F40E946E0329
:1008C000681979098A099B09603777418105910583
:1008D00070F4D6018D919C91DC01ED91FC91028424
:1008E000F385E02D099597FDE6CF8993E4CFCE01FE
:1008F0008E199F09DF91CF911F910F91FF90EF907B
:10090000DF90CF90BF90AF909F908F900895FC01A3
:1009100001900020E9F73197AF01481B590BBC014A
:1009200088E692E00C94A7018F929F92AF92BF92BB
:100930000F931F93CF93DF93CDB7DEB7A1970FB679
:10094000F894DEBF0FBECDBF19A2423008F44AE0D2
:100950008E010F5D1F4F842E912CB12CA12CA5016F
:1009600094010E947011E62FB901CA01EA30F4F433
:10097000E05DD801EE938D01232B242B252B79F7F5
:1009800090E080E0109719F0CD010E948704A196B5
:100990000FB6F894DEBF0FBECDBFDF91CF911F9190
:1009A0000F91BF90AF909F908F900895E95CE1CF39
:1009B0006BE588E692E00E9492030E946E034AE093
:1009C0000E94940488E690E00C94EE03CF93DF93AA
:1009D000BC0190E080E04AE00E949404EC018BE4CA
:1009E00091E00E9487048C0F9D1FDF91CF910895A5
:1009F000CF93DF930E94EE03EC018BE491E00E9421
:100A000087048C0F9D1FDF91CF910895CF93DF93C3
:100A10000E948704EC018BE491E00E9487048C0F14
:100A20009D1FDF91CF910895DC01ED91FC9111970D
:100A3000309761F012962D913C911397E217F307CE
:100A400028F401900020E9F7ED93FC930895FC0150
:100A500080819181009739F0228133818217930739
:100A600010F40C94BC1090E080E008950F931F9355
:100A7000CF93DF93EC01FB0101900020E9F78F0198
:100A8000061B170B8A819B81A801480F591F2C81D7
:100A90003D812417350768F028813981A801820F2C
:100AA000931F0E94AC114A815B81400F511F5B83F1
:100AB0004A83DF91CF911F910F9108950F931F9358
:100AC000CF93DF93CDB7DEB762970FB6F894DEBF52
:100AD0000FBECDBF8C01CB014AE0BE016F5F7F4FDF
:100AE0000E940A11BE016F5F7F4FC8010E94360548
:100AF00062960FB6F894DEBF0FBECDBFDF91CF91E7
:100B00001F910F9108953F924F925F926F927F9243
:100B10008F929F92AF92BF92CF92DF92EF92FF920D
:100B20000F931F93CF93DF93CDB7DEB7A3970FB685
:100B3000F894DEBF0FBECDBF6C012DB73EB73BA30F
:100B40002AA30E946C03D60157968D919C915897C9
:100B5000B12C029709F411C456968C9156978F5F69
:100B600056968C93569754962D913C915597232BDE
:100B700019F0BB24B394FAC38330D8F7ED91FC91FC
:100B80008281882309F4D7C3FE0131964F0150E1D9
:100B9000452E512CD601ED91FC9180819181DC0193
:100BA000ED91FC910084F185E02D09951816190648
:100BB0000CF0C1C345E050E0BE01695E7F4FF60115
:100BC000808191810E944504009721F3059709F0E7
:100BD0006EC0888D998D982789279827998F888F3F
:100BE0000A8D1B8D1027012710271B8F0A8F892B39
:100BF00009F45DC08F8981116FC00E946E03D60118
:100C000016966D937D938D939C93199757962D917E
:100C10003C918A8D9B8D232B09F05AC0288D398DEC
:100C20002130310509F054C08930910599F1883C93
:100C3000910519F0049709F040C00E94D80488E893
:100C400091E00E94EE03F6016681778180859185AF
:100C50000685178520893189601B710B820B930BE8
:100C60004AE00E94940483E891E00E94F804F601AF
:100C700086819781A085B18586879787A08BB18B68
:100C800021E030E0308F278BC6010E94C50B0E9407
:100C90006C0380CF0E94D80482E892E00E94F8049E
:100CA00083E090E0D60158969C938E935797D60197
:100CB000ED91FC911282B12C59C30E94D8048BE6AD
:100CC00092E00E94EE038A8D9B8D0E94E604EFCF96
:100CD000059709F05FCFEBCF0130B1E01B0790F033
:100CE0000E94D8048AE592E00E94EE038A8D9B8DD3
:100CF0000E94E604F601108E178A0190F081E02D23
:100D0000128248CFADB6BEB6C80101962DB73EB728
:100D1000281B390B0FB6F8943EBF0FBE2DBF4DB741
:100D20005EB74F5F5F4F7A01A801B701D6018D9181
:100D30009C910E9445048017910709F076C0EA8DC6
:100D4000FB8DEE0DFF1D10820E946E03F60166837F
:100D50007783808791878F89813109F4D7C278F5AD
:100D60008630D9F08F3009F4C6C0823071F5D601D3
:100D700057968D919C91892B81F40E94D80484E52B
:100D800092E00E94F80421E030E0F601308F278BDA
:100D9000C6010E94C50B0E946C03488D598DF12C31
:100DA000E12C08EC10E030E020E060E0C6010E9499
:100DB000C40A0FB6F894BEBE0FBEADBEEBCE8D31E9
:100DC000B1F258F4843109F496C0F601108E178AF6
:100DD0000190F081E02D1282ECCF893281F08733CF
:100DE000A1F78A8D9B8D892B21F30E94D8048BE378
:100DF00092E00E94EE03C7010E940605DACF8481CB
:100E00009581892B39F480E490E00E94970FF601D8
:100E1000958384830A8D1B8D0E0D1F1DFA82E98236
:100E20001C830B83E016F10630F00FB6F894BEBEBB
:100E30000FBEADBE3CCF40E450E0B701D6011496E2
:100E40008D919C910E94BE11D6011496ED91FC915A
:100E500017AEC4010E941405FC01808191818017A6
:100E6000910708F045C089819A810097E9F12B81AB
:100E70003C8182179307C0F50E94DA108B010E9413
:100E8000D80484E492E00E94EE03D60114968D917A
:100E90009C91009711F00E9487046AE388E692E033
:100EA0000E949203C8010E94E604D601ED91FC91D4
:100EB0001197128258961C921E9257970E946E03A9
:100EC000DC01CB0188589341A109B109F601828761
:100ED0009387A487B58786839783A087B187868702
:100EE0009787A08BB18B65CF60E070E0CB01C6CF58
:100EF00000E510E0C4CF888D998DD60155969C935E
:100F00008E935497EA8DFB8DF9A3E8A33F016E0CF5
:100F10007F1CFD8EEC8E7F8E6E8EE614F70408F03B
:100F20008AC1D7010D911C91CE014C960E941405E7
:100F3000FC01808191818615970508F07CC18C8D1C
:100F40009D8DDC012C91213409F063C001960E9433
:100F5000BC104EE0342E380E06970CF45FC00637F6
:100F6000B2E71B0709F467C108F0FDC20136F2E7DA
:100F70001F0709F4E3C2043622E7120709F05EC036
:100F800033243A949A8A898A1C8A1B8A5E8A4D8AFB
:100F90006CE571E0CE0141960E943605032D10E00C
:100FA000B801CE0141960E945E05F801EA56FE4F57
:100FB0008491F801E352FD4FF49007531D4FF8015F
:100FC000049160E070E0002389F081110E94B40276
:100FD000E02FF0E0EE0FFF1FEB54FD4FA591B49111
:100FE000EC91FE2261E070E009F460E0CE014196F0
:100FF0000E945E050B891C890150110929893A89D3
:10100000F12CE12C50E040E064E1C6010E94C40AEA
:1010100012C1CE014C960E942705382E0637B2E742
:101020001B0709F42BC118F50136F2E71F0709F475
:10103000B1C0043622E7120709F4A4CF00371D46D9
:1010400009F46DC00E94D8048AE292E00E94EE0387
:10105000C7010E940605D60154964D915C91F12C72
:10106000E12C02E010E030E020E060E0CECF04367A
:1010700047E7140709F473C0063757E7150709F463
:1010800016C101361747F1F6CE014C960E941405A1
:10109000DC018D919C918615970508F0CCC061E02C
:1010A000832D0E940B03CE014C960E9427058C01D4
:1010B00061E0832D0E940B030115110509F465C041
:1010C0000F3F110509F092C061E060C0CE014C965F
:1010D0000E942705F82ECE014C960E9414050C8D17
:1010E0001D8D6EE471E0C8010E94B51160E0892B8E
:1010F00079F061E571E0C8010E94B511892B39F0E2
:1011000065E571E0C8010E94B511892BE9F461E041
:101110008F2D0E940B03CE014C960E9414058C8DDE
:101120009D8D8615970508F086C0DC012C91213431
:1011300069F601960E94BC103EE0F32EF80E069769
:1011400054F2FF24FA94C7CF69E571E0C8010E9408
:10115000B511892B01F762E0DBCF33243A94CE013D
:101160004C960E941405DC018D919C918615970583
:1011700008F061C061E0832D0E940B03CE014C9604
:101180000E94270561E0892B09F460E0832D0E940D
:10119000DD0251C09A8A898A1C8A1B8A5E8A4D8A1E
:1011A0006FE571E0CE0141960E943605632D70E037
:1011B000CE0141960E945E05BDE0B31510F4E2EF4A
:1011C0003E0E832D8770806480937C0080917A002E
:1011D000806480937A0080917A0086FDFCCF8091B4
:1011E000780060917900762F682F00CFE32DF0E032
:1011F000EA56FE4FE491E33039F148F4E130B9F0BA
:10120000E230E9F0003811050CF05ECFBECFE730D8
:1012100029F1E83059F1E430A9F78091800080622B
:101220008093800010938B0000938A0004C084B5E3
:10123000806884BD07BDF601158A148ABACD84B5CD
:10124000806284BD08BDF7CF809180008068809364
:1012500080001093890000938800EDCF8091B0004A
:1012600080688093B0000093B300E5CF8091B00018
:1012700080628093B0000093B400DDCF3982BFE17B
:10128000B315C8F2E32DF0E0EE0FFF1FE655FE4F59
:10129000259134912115310571F2E1E0263A3E079E
:1012A00051F2C401F9010995C6CF33243A94CE0115
:1012B0004C960E9414052C8D3D8DC9018E199F09F5
:1012C00048A159A1481B590B3A8329835C834B835E
:1012D0005E834D83398A5FE1531508F4ACCFE32D6B
:1012E000F0E0EE0FFF1FE651FE4F259134912115DE
:1012F000310509F4A0CF81E0253A380709F49BCFE6
:10130000B401CE014196F901099595CF8A8D9B8D47
:101310008E0D9F1DFA82E9829C838B83E816F90665
:1013200008F047CDC4010E941405D60155961C92C1
:101330001E9254973ECD0E946E032B013C01F60194
:1013400000811181D8011296BC9012978789908DE7
:101350008130910509F08EC0B1102FC046865786A6
:10136000608A718A108E178A12961C92D601569640
:101370008C915697815056968C938B2DAAA1BBA128
:101380000FB6F894BEBF0FBEADBFA3960FB6F894CC
:10139000DEBF0FBECDBFDF91CF911F910F91FF90A8
:1013A000EF90DF90CF90BF90AF909F908F907F9005
:1013B0006F905F904F903F90089586819781A085B0
:1013C000B185A3019201281B390B4A0B5B0BDA0193
:1013D000C901893136EF9307A105B10560F00E947C
:1013E000D80483EA92E00E94F804D60158961C9231
:1013F0001E9257975DCC893C9F4AA105B10598F490
:10140000F60182859385A485B585A3019201281BE9
:10141000390B4A0B5B0BDA01C901893C9F4AA105D4
:10142000B10508F4A6CBF60186859785A089B18918
:10143000A3019201281B390B4A0B5B0BDA01C9018E
:1014400081379741A105B10508F493CBF12CE12C2C
:1014500010E000E030E020E050E040E066E0C6014F
:101460000E94C40AD6011E964D925D926D927C92A6
:1014700051977CCF892B09F07CCB86859785A089F5
:10148000B189481A590A6A0A7B0ABB20C1F0F1E700
:101490004F16F7E15F066104710408F46ACB0E94FD
:1014A000D80485E992E00E94F804D601ED91FC9100
:1014B0001197128258961C921E925797FCCBB9E84E
:1014C0004B16B3E15B066104710408F452CB0E9431
:1014D000D80485E791E00E94F804F80180819181A9
:1014E000DC01ED91FC910680F781E02D099581E00A
:1014F000F801828381E090E0D60153969C938E930D
:10150000529712962D913C91F90101900020E9F734
:1015100031978F01021B130BF12CE12C41E050E0BD
:101520006DE1C6010E94C40AF60182859385A485F7
:10153000B58586879787A08BB18B1BCB9A8A898AC2
:101540001C8A1B8A5E8A4D8A6FE571E0CE01419646
:101550000E9436056FEF70E0CE0141960E945E0555
:1015600033243A942CCE043647E7140709F4F5CD1A
:10157000063757E7150709F498CE0136174709F0E3
:1015800061CD33243A9480CD2F923F924F925F9257
:101590007F928F929F92AF92BF92CF92DF92EF9203
:1015A000FF920F931F93CF93DF9300D000D01F9231
:1015B000CDB7DEB77C01762E6A015901DC01ED91D1
:1015C000FC918281882309F4A9C0862F8D7F09F4BC
:1015D000D7C0B6E06B1709F4D3C0EDE16E1709F47C
:1015E000CFC0D70157968D919C91019709F096C075
:1015F000452B81F4F701C488D588C114D10451F476
:1016000082899389019609F4A0C0938B828BF7019C
:10161000C288D38884EF870D8930B0F5D7011A9638
:101620004D915D916D917C911D9716968D919D9137
:101630000D90BC91A02D84179507A607B70710F44D
:10164000DB01CA011C012D01E2E42E0E311C411CFC
:10165000511C0E946E03A2019101261B370B480BFF
:10166000590BDA01C901B7FD75C0C7010E94830596
:101670000E946E03A2019101261B370B480B590BE8
:10168000DA01C901B7FFF1CF4801B5E08B0E911C1B
:10169000A114B10419F485E0882E912C7982DC2400
:1016A000CD24DC24DB82CA82902F812F9D838C8302
:1016B000D701ED91FC9180819181DC01ED91FC914C
:1016C0000280F381E02D45E050E0BE016F5F7F4F67
:1016D00009950E946C03772009F445C00115110596
:1016E00009F441C0D701ED91FC9180819181DC0129
:1016F000ED91FC910280F381E02DA801B5010995DF
:101700000B5F1F4F0E946C038016910679F1F70161
:10171000108E178A0190F081E02D12820F900F90A9
:101720000F900F900F90DF91CF911F910F91FF902D
:10173000EF90DF90CF90BF90AF909F908F907F9071
:101740005F904F903F902F90089581E090E0938BB1
:10175000828B5DCFD70156968C91811195CFC701B1
:101760000E94830591CF05E010E0CECF0E946E036A
:10177000D7011A966D937D938D939C931D97CECF31
:10178000C114D10409F080CF35CFCF92DF92EF9210
:10179000FF920F931F93CF93DF93CDB7DEB7C55A58
:1017A000D1090FB6F894DEBF0FBECDBF6C0145E680
:1017B00050E063E770E0CE0101960E940111CE0176
:1017C0008A599F4F7C0105E610E09E012F5F3F4F35
:1017D00050E040E061E1C6010E94C40ACB55DF4FF2
:1017E0000FB6F894DEBF0FBECDBFDF91CF911F9132
:1017F0000F91FF90EF90DF90CF9008951F920F927E
:101800000FB60F9211242F933F934F935F936F93D3
:101810007F938F939F93AF93BF93EF93FF938FEA41
:1018200091E00E942502FF91EF91BF91AF919F91AE
:101830008F917F916F915F914F913F912F910F9079
:101840000FBE0F901F9018951F920F920FB60F9218
:1018500011242F938F939F93EF93FF93E091BF01F8
:10186000F091C0018081E091C501F091C60182FD37
:101870001BC090818091C8018F5F8F732091C90137
:10188000821741F0E091C801F0E0E155FE4F958FDD
:101890008093C801FF91EF919F918F912F910F90AD
:1018A0000FBE0F901F9018958081F4CF1F920F925A
:1018B0000FB60F9211242F933F938F939F93AF9363
:1018C000BF938091A3019091A401A091A501B09133
:1018D000A6013091A20123E0230F2D3758F5019680
:1018E000A11DB11D2093A2018093A3019093A40197
:1018F000A093A501B093A6018091A7019091A801A2
:10190000A091A901B091AA010196A11DB11D8093DA
:10191000A7019093A801A093A901B093AA01BF9138
:10192000AF919F918F913F912F910F900FBE0F908C
:101930001F90189526E8230F0296A11DB11DD2CF46
:101940001F920F920FB60F9211242F933F934F9334
:101950005F936F937F938F939F93AF93BF93EF9317
:10196000FF93E091AD01F091AE01309749F0A6856B
:10197000B7858585968D91FF14C09C918923A1F42C
:10198000FF91EF91BF91AF919F918F917F916F9157
:101990005F914F913F912F910F900FBE0F901F902D
:1019A00018959C91892361F7A389B4899C918589B5
:1019B000809589238C93868997890197F1F7608DAB
:1019C000718DA685B785558538E020E0CB0101975C
:1019D000F1F7822F90E095958795282F4C9145231C
:1019E00009F02068315091F7868D81FD2095809116
:1019F000AC0190E001968F7399273091AB013817B5
:101A000099F0A091AC01B0E0AE59BE4F2C938093F9
:101A1000AC01828D938D0197F1F7A389B4898C91E4
:101A20009589892B8C93ACCF868D8160868FF1CF81
:101A30001092B2011092B10188EE93E0A0E0B0E004
:101A40008093B3019093B401A093B501B093B60114
:101A50002BE231E03093B0012093AF0125EC30E070
:101A60003093BC012093BB0124EC30E03093BE01E5
:101A70002093BD0120EC30E03093C0012093BF01E2
:101A800021EC30E03093C2012093C10122EC30E020
:101A90003093C4012093C30126EC30E03093C6019B
:101AA0002093C5011092C8011092C9011092CA0179
:101AB0001092CB0110926B0210926A0280936C021A
:101AC00090936D02A0936E02B0936F028DE391E04C
:101AD000909369028093680210927F0210927E02B6
:101AE0001092810210928002109283021092820260
:101AF0001092850210928402609186026E7F6D7F43
:101B0000609386026695617081E0682783E00E9499
:101B1000DD0261E083E00E940B03E0EEF2E0E4917D
:101B2000E0937802ECECF2E0E491F0E0EE0FFF1FBE
:101B3000E154FD4F8591949190937A0280937902BC
:101B400060E082E00E940B038091860281FD04C068
:101B500061E082E00E94DD0282E080937402EFED9A
:101B6000F2E0E491E0937502EBECF2E0E491F0E056
:101B7000EE0FFF1FEB54FD4F8591949190937702E8
:101B800080937602109266021092650210926702AC
:101B900085E692E090934D0280934C0210924F02A2
:101BA00010924E0210925102109250021092520264
:101BB0001092530210925402109255021092560243
:101BC00010925702109258021092590210925A0223
:101BD00010925B0210925C0210925D0210925F0202
:101BE00010925E02109261021092600210926202E4
:101BF00010926402109263020895789484B5826012
:101C000084BD84B5816084BD85B5826085BD85B5A0
:101C1000816085BD80916E00816080936E0010921E
:101C20008100809181008260809381008091810099
:101C3000816080938100809180008160809380002A
:101C40008091B10084608093B1008091B000816088
:101C50008093B00080917A00846080937A008091B4
:101C60007A00826080937A0080917A00816080930C
:101C70007A0080917A00806880937A001092C10087
:101C800010928302109282021092810210928002BE
:101C900010927F0210927E028DE991E0909385026E
:101CA0008093840290917402963108F047C02DEB26
:101CB00030E030937F0220937E022BE931E03093B5
:101CC0008102209380022CE231E030938302209342
:101CD00082022091680084E0983048F031E09E3024
:101CE00008F430E081E001C0880F3A95EAF7822BD2
:101CF000809368002DE630E0983050F02BE630E01D
:101D00009E3030F02CE630E0963110F030E020E0EC
:101D100030937C0220937B02292F30E0983008F02A
:101D2000C8C081E001C0880F9A95EAF780937D02D0
:101D300080918402909185020197F1F7809182024F
:101D400090918302892B49F1E091AD01F091AE01B0
:101D500022E0E836F20709F1309739F0A389B48917
:101D60009C918589809589238C93809186028E7FB2
:101D7000809386021092AC011092AB0188E692E04B
:101D80009093AE018093AD01E0917B02F0917C02D3
:101D9000808190917D02892B8083E091BF01F09139
:101DA000C00182E08083E091BB01F091BC01108210
:101DB000E091BD01F091BE018FEC80831092C701CC
:101DC000E091C301F091C40186E08083E091C101FC
:101DD000F091C201808180618083E091C101F09126
:101DE000C201808188608083E091C101F091C201CD
:101DF000808180688083E091C101F091C20180817F
:101E00008F7D808380E091E090934F0280934E021B
:101E10000E946E03DC01CB0188589341A109B109EE
:101E20008093560290935702A0935802B0935902A0
:101E30008093520290935302A0935402B0935502A0
:101E400080935A0290935B02A0935C02B0935D0270
:101E50000E94D80484EE90E00E94F804E0914C02C5
:101E6000F0914D028FEA91E091838083E0914C02E2
:101E7000F0914D02128210926402109263020E944D
:101E80006E036B017C018091630290916402019763
:101E9000E9F00E946E036C197D098E099F09603577
:101EA00076448105910590F48CE492E00E948305CC
:101EB000EACF9E3040F42850310981E001C0880FFC
:101EC0002A95EAF733CF2E503109F7CF809163027C
:101ED00090916402019751F6C0E0D0E08CE492E06A
:101EE0000E9483052097D1F30E9411028823B1F349
:101EF0000E940000F3CF8DE391E0909369028093FC
:101F000068028091AD019091AE018856924071F4C3
:101F1000E0917B02F0917C02908180917D0280951E
:101F2000892380831092AE011092AD0108950F9322
:101F30001F93CF93DF938230910510F482E090E0FD
:101F4000E0918902F0918A0230E020E0B0E0A0E068
:101F5000309799F42115310509F44AC0281B390B33
:101F600024303105D8F58A819B816115710589F18D
:101F7000FB0193838283FE0111C040815181028164
:101F8000138148175907E0F04817590799F410973B
:101F900061F012960C93129713961C933296CF0110
:101FA000DF91CF911F910F910895009389021093B3
:101FB0008A02F4CF2115310551F04217530738F04A
:101FC000A901DB019A01BD01DF01F801C1CFEF01D9
:101FD000F9CF90938A0280938902CDCFFE01E20F60
:101FE000F31F819391932250310939832883D7CFEE
:101FF0002091870230918802232B41F42091230104
:10200000309124013093880220938702209121018E
:10201000309122012115310541F42DB73EB7409191
:10202000250150912601241B350BE0918702F09188
:102030008802E217F307A0F42E1B3F0B281739077D
:1020400078F0AC014E5F5F4F2417350748F04E0F14
:102050005F1F5093880240938702819391939FCF93
:10206000F0E0E0E09CCFCF93DF930097E9F0FC0134
:10207000329713821282A0918902B0918A02ED01F7
:1020800030E020E01097A1F420813181820F931F6E
:1020900020918702309188022817390709F061C022
:1020A000F0938802E0938702DF91CF910895EA01CF
:1020B000CE17DF07E8F54A815B819E014115510586
:1020C000B1F7E901FB83EA8349915991C40FD51F08
:1020D000EC17FD0761F4808191810296840F951FB2
:1020E000E90199838883828193819B838A83F0E0CD
:1020F000E0E012968D919C9113970097B9F52D9180
:102100003C911197CD010296820F931F2091870277
:10211000309188022817390739F6309751F5109217
:102120008A0210928902B0938802A0938702BCCFE2
:10213000D383C28340815181840F951FC817D9076B
:1021400061F44E5F5F4F88819981480F591F518319
:1021500040838A819B81938382832115310509F015
:10216000B0CFF0938A02E09389029ECFFD01DC019B
:10217000C0CF13821282D7CFFC0188279927E89419
:1021800021912032E9F3293010F02E30C8F32B32A0
:1021900041F02D3239F4689404C00E942A11820F54
:1021A000911D219120532A30C0F31EF49095819502
:1021B0009F4F08951F93FC0199278827BC01E8943D
:1021C00011911032E9F3193010F01E30C8F31B32B0
:1021D00051F01D3249F4689406C00E941511610F38
:1021E000711D811D911D119110531A30B0F33EF4F1
:1021F00090958095709561957F4F8F4F9F4F1F9160
:102200000895FB01DC0102C005900D924150504041
:10221000D8F70895BB274A3031F4992322F4BDE260
:10222000909581959F4F0C943311592F482F372F3C
:10223000262F660F771F881F991F660F771F881F2D
:10224000991F620F731F841F951F660F771F881FCA
:10225000991F08957AE0979F902D879F802D910D6B
:1022600011240895BB27FB015527AA27880F991F22
:10227000AA1FA41710F0A41B83955051B9F7A05DB5
:10228000AA3308F0A95DA193009779F7B111B19332
:102290001192CB010C944C11DC01FC01672F719160
:1022A0007723E1F7329704C07C916D93708362913C
:1022B000AE17BF07C8F3089597FB072E16F40094D6
:1022C00007D077FD09D00E94921107FC05D03EF49B
:1022D000909581959F4F0895709561957F4F0895D2
:1022E000A1E21A2EAA1BBB1BFD010DC0AA1FBB1F1A
:1022F000EE1FFF1FA217B307E407F50720F0A21B8C
:10230000B30BE40BF50B661F771F881F991F1A94F8
:1023100069F760957095809590959B01AC01BD0122
:10232000CF010895AA1BBB1B51E107C0AA1FBB1F09
:10233000A617B70710F0A61BB70B881F991F5A9551
:10234000A9F780959095BC01CD010895EE0FFF1F70
:102350000590F491E02D0994FB01DC0102C001908D
:102360000D9241505040D8F70895FB01DC018D914A
:10237000019080190110D9F3990B0895FB01DC013C
:102380004150504048F001900D920020C9F701C023
:102390001D9241505040E0F7089511E0CAE7D1E0A6
:1023A00004C0FE010E94A6112196CB37D107C9F7C0
:0423B000F894FFCFCF
:1023B400526932354B78506F585433364139725024
:1023C400426A78706D30424754346D6E35755F459E
:1023D4000000008B028000000000004702A701D427
:1023E4000194020502E301F701000000009203A733
:1023F400014204A601090421047A030D0A00696E4E
:10240400006F75740070776D0070750064770061FB
:0224140077004F
:00000001FF
